{
    "abi": [
        {
            "type": "constructor",
            "inputs": [
                {
                    "name": "_registry",
                    "type": "address",
                    "internalType": "address"
                }
            ],
            "stateMutability": "nonpayable"
        },
        {
            "type": "function",
            "name": "addNewDelegate",
            "inputs": [
                {
                    "name": "id",
                    "type": "string",
                    "internalType": "string"
                },
                {
                    "name": "newDelegate",
                    "type": "address",
                    "internalType": "address"
                }
            ],
            "outputs": [],
            "stateMutability": "nonpayable"
        },
        {
            "type": "function",
            "name": "addrRecords",
            "inputs": [
                {
                    "name": "id",
                    "type": "string",
                    "internalType": "string"
                },
                {
                    "name": "coinType",
                    "type": "uint256",
                    "internalType": "uint256"
                }
            ],
            "outputs": [
                {
                    "name": "addr",
                    "type": "bytes",
                    "internalType": "bytes"
                }
            ],
            "stateMutability": "view"
        },
        {
            "type": "function",
            "name": "delegates",
            "inputs": [
                {
                    "name": "id",
                    "type": "string",
                    "internalType": "string"
                },
                {
                    "name": "delegate",
                    "type": "address",
                    "internalType": "address"
                }
            ],
            "outputs": [
                {
                    "name": "authorized",
                    "type": "bool",
                    "internalType": "bool"
                }
            ],
            "stateMutability": "view"
        },
        {
            "type": "function",
            "name": "eip712Domain",
            "inputs": [],
            "outputs": [
                {
                    "name": "fields",
                    "type": "bytes1",
                    "internalType": "bytes1"
                },
                {
                    "name": "name",
                    "type": "string",
                    "internalType": "string"
                },
                {
                    "name": "version",
                    "type": "string",
                    "internalType": "string"
                },
                {
                    "name": "chainId",
                    "type": "uint256",
                    "internalType": "uint256"
                },
                {
                    "name": "verifyingContract",
                    "type": "address",
                    "internalType": "address"
                },
                {
                    "name": "salt",
                    "type": "bytes32",
                    "internalType": "bytes32"
                },
                {
                    "name": "extensions",
                    "type": "uint256[]",
                    "internalType": "uint256[]"
                }
            ],
            "stateMutability": "view"
        },
        {
            "type": "function",
            "name": "getAddrRecord",
            "inputs": [
                {
                    "name": "id",
                    "type": "string",
                    "internalType": "string"
                },
                {
                    "name": "coinType",
                    "type": "uint256",
                    "internalType": "uint256"
                }
            ],
            "outputs": [
                {
                    "name": "",
                    "type": "bytes",
                    "internalType": "bytes"
                }
            ],
            "stateMutability": "view"
        },
        {
            "type": "function",
            "name": "getEncTextRecord",
            "inputs": [
                {
                    "name": "permission",
                    "type": "tuple",
                    "internalType": "struct Permission",
                    "components": [
                        {
                            "name": "publicKey",
                            "type": "bytes32",
                            "internalType": "bytes32"
                        },
                        {
                            "name": "signature",
                            "type": "bytes",
                            "internalType": "bytes"
                        }
                    ]
                },
                {
                    "name": "id",
                    "type": "string",
                    "internalType": "string"
                },
                {
                    "name": "key",
                    "type": "string",
                    "internalType": "string"
                }
            ],
            "outputs": [
                {
                    "name": "",
                    "type": "string",
                    "internalType": "string"
                }
            ],
            "stateMutability": "view"
        },
        {
            "type": "function",
            "name": "getTextRecord",
            "inputs": [
                {
                    "name": "id",
                    "type": "string",
                    "internalType": "string"
                },
                {
                    "name": "key",
                    "type": "string",
                    "internalType": "string"
                }
            ],
            "outputs": [
                {
                    "name": "",
                    "type": "string",
                    "internalType": "string"
                }
            ],
            "stateMutability": "view"
        },
        {
            "type": "function",
            "name": "removeDelegate",
            "inputs": [
                {
                    "name": "id",
                    "type": "string",
                    "internalType": "string"
                },
                {
                    "name": "delegate",
                    "type": "address",
                    "internalType": "address"
                }
            ],
            "outputs": [],
            "stateMutability": "nonpayable"
        },
        {
            "type": "function",
            "name": "setAddrRecord",
            "inputs": [
                {
                    "name": "id",
                    "type": "string",
                    "internalType": "string"
                },
                {
                    "name": "coinType",
                    "type": "uint256",
                    "internalType": "uint256"
                },
                {
                    "name": "addr",
                    "type": "bytes",
                    "internalType": "bytes"
                }
            ],
            "outputs": [],
            "stateMutability": "nonpayable"
        },
        {
            "type": "function",
            "name": "setEuint128TextRecord",
            "inputs": [
                {
                    "name": "id",
                    "type": "string",
                    "internalType": "string"
                },
                {
                    "name": "key",
                    "type": "string",
                    "internalType": "string"
                },
                {
                    "name": "value",
                    "type": "tuple",
                    "internalType": "struct inEuint128",
                    "components": [
                        {
                            "name": "data",
                            "type": "bytes",
                            "internalType": "bytes"
                        },
                        {
                            "name": "securityZone",
                            "type": "int32",
                            "internalType": "int32"
                        }
                    ]
                }
            ],
            "outputs": [],
            "stateMutability": "nonpayable"
        },
        {
            "type": "function",
            "name": "setEuint16TextRecord",
            "inputs": [
                {
                    "name": "id",
                    "type": "string",
                    "internalType": "string"
                },
                {
                    "name": "key",
                    "type": "string",
                    "internalType": "string"
                },
                {
                    "name": "value",
                    "type": "tuple",
                    "internalType": "struct inEuint16",
                    "components": [
                        {
                            "name": "data",
                            "type": "bytes",
                            "internalType": "bytes"
                        },
                        {
                            "name": "securityZone",
                            "type": "int32",
                            "internalType": "int32"
                        }
                    ]
                }
            ],
            "outputs": [],
            "stateMutability": "nonpayable"
        },
        {
            "type": "function",
            "name": "setEuint256TextRecord",
            "inputs": [
                {
                    "name": "id",
                    "type": "string",
                    "internalType": "string"
                },
                {
                    "name": "key",
                    "type": "string",
                    "internalType": "string"
                },
                {
                    "name": "value",
                    "type": "tuple",
                    "internalType": "struct inEuint256",
                    "components": [
                        {
                            "name": "data",
                            "type": "bytes",
                            "internalType": "bytes"
                        },
                        {
                            "name": "securityZone",
                            "type": "int32",
                            "internalType": "int32"
                        }
                    ]
                }
            ],
            "outputs": [],
            "stateMutability": "nonpayable"
        },
        {
            "type": "function",
            "name": "setEuint32TextRecord",
            "inputs": [
                {
                    "name": "id",
                    "type": "string",
                    "internalType": "string"
                },
                {
                    "name": "key",
                    "type": "string",
                    "internalType": "string"
                },
                {
                    "name": "value",
                    "type": "tuple",
                    "internalType": "struct inEuint32",
                    "components": [
                        {
                            "name": "data",
                            "type": "bytes",
                            "internalType": "bytes"
                        },
                        {
                            "name": "securityZone",
                            "type": "int32",
                            "internalType": "int32"
                        }
                    ]
                }
            ],
            "outputs": [],
            "stateMutability": "nonpayable"
        },
        {
            "type": "function",
            "name": "setEuint64TextRecord",
            "inputs": [
                {
                    "name": "id",
                    "type": "string",
                    "internalType": "string"
                },
                {
                    "name": "key",
                    "type": "string",
                    "internalType": "string"
                },
                {
                    "name": "value",
                    "type": "tuple",
                    "internalType": "struct inEuint64",
                    "components": [
                        {
                            "name": "data",
                            "type": "bytes",
                            "internalType": "bytes"
                        },
                        {
                            "name": "securityZone",
                            "type": "int32",
                            "internalType": "int32"
                        }
                    ]
                }
            ],
            "outputs": [],
            "stateMutability": "nonpayable"
        },
        {
            "type": "function",
            "name": "setEuint8TextRecord",
            "inputs": [
                {
                    "name": "id",
                    "type": "string",
                    "internalType": "string"
                },
                {
                    "name": "key",
                    "type": "string",
                    "internalType": "string"
                },
                {
                    "name": "value",
                    "type": "tuple",
                    "internalType": "struct inEuint8",
                    "components": [
                        {
                            "name": "data",
                            "type": "bytes",
                            "internalType": "bytes"
                        },
                        {
                            "name": "securityZone",
                            "type": "int32",
                            "internalType": "int32"
                        }
                    ]
                }
            ],
            "outputs": [],
            "stateMutability": "nonpayable"
        },
        {
            "type": "function",
            "name": "setTextRecord",
            "inputs": [
                {
                    "name": "id",
                    "type": "string",
                    "internalType": "string"
                },
                {
                    "name": "key",
                    "type": "string",
                    "internalType": "string"
                },
                {
                    "name": "value",
                    "type": "string",
                    "internalType": "string"
                }
            ],
            "outputs": [],
            "stateMutability": "nonpayable"
        },
        {
            "type": "function",
            "name": "textRecords",
            "inputs": [
                {
                    "name": "id",
                    "type": "string",
                    "internalType": "string"
                },
                {
                    "name": "key",
                    "type": "string",
                    "internalType": "string"
                }
            ],
            "outputs": [
                {
                    "name": "value",
                    "type": "string",
                    "internalType": "string"
                }
            ],
            "stateMutability": "view"
        },
        {
            "type": "event",
            "name": "EIP712DomainChanged",
            "inputs": [],
            "anonymous": false
        },
        {
            "type": "error",
            "name": "InvalidShortString",
            "inputs": []
        },
        {
            "type": "error",
            "name": "L2REgistry__DelegateAlreadyChanged",
            "inputs": [
                {
                    "name": "assigner",
                    "type": "address",
                    "internalType": "address"
                },
                {
                    "name": "delegate",
                    "type": "address",
                    "internalType": "address"
                }
            ]
        },
        {
            "type": "error",
            "name": "L2Registry__UnauthorizedAssign",
            "inputs": [
                {
                    "name": "user",
                    "type": "address",
                    "internalType": "address"
                }
            ]
        },
        {
            "type": "error",
            "name": "L2Registry__UnauthorizedRead",
            "inputs": [
                {
                    "name": "user",
                    "type": "address",
                    "internalType": "address"
                }
            ]
        },
        {
            "type": "error",
            "name": "L2Registry__UnauthorizedWrite",
            "inputs": [
                {
                    "name": "user",
                    "type": "address",
                    "internalType": "address"
                }
            ]
        },
        {
            "type": "error",
            "name": "SignerNotMessageSender",
            "inputs": []
        },
        {
            "type": "error",
            "name": "SignerNotOwner",
            "inputs": []
        },
        {
            "type": "error",
            "name": "StringTooLong",
            "inputs": [
                {
                    "name": "str",
                    "type": "string",
                    "internalType": "string"
                }
            ]
        }
    ],
    "bytecode": {
        "object": "0x610160604052348015610010575f80fd5b5060405161288438038061288483398101604081905261002f916103f7565b6040805180820182526011815270233432b734bc102832b936b4b9b9b4b7b760791b602080830191909152825180840190935260038352620312e360ec1b908301529061007c825f61020f565b6101205261008b81600161020f565b61014052815160208084019190912060e052815190820120610100524660a05261011760e05161010051604080517f8b73c3c69bb8fe3d512ecc4cf759cc79239f7b179b0ffacaa9a75d522b39400f60208201529081019290925260608201524660808201523060a08201525f9060c00160405160208183030381529060405280519060200120905090565b60805250503060c052604080516051602082015201604051602081830303815290604052600360405161016190700c2e0e05cdaf2cadcc6d8c2ecca5ccae8d607b1b815260110190565b90815260408051602092819003830190205f808052925290209061018590826104bc565b50610190600a610241565b604051700c2e0e05cdaf2cadcc6d8c2ecca5ccae8d607b1b8152600490601101908152604051908190036020018120651cd958dc995d60d21b825290600601908152602001604051809103902090816101e991906104bc565b50600280546001600160a01b0319166001600160a01b03929092169190911790556105ea565b5f60208351101561022a57610223836102d0565b905061023b565b8161023584826104bc565b5060ff90505b92915050565b60605f61024d83610316565b60010190505f816001600160401b0381111561026b5761026b610424565b6040519080825280601f01601f191660200182016040528015610295576020820181803683370190505b5090508181016020015b5f19016f181899199a1a9b1b9c1cb0b131b232b360811b600a86061a8153600a850494508461029f57509392505050565b5f80829050601f81511115610303578260405163305a27a960e01b81526004016102fa919061057b565b60405180910390fd5b805161030e826105c7565b179392505050565b5f807a184f03e93ff9f4daa797ed6e38ed64bf6a1f010000000000000000831061035e577a184f03e93ff9f4daa797ed6e38ed64bf6a1f010000000000000000830492506040015b6d04ee2d6d415b85acef8100000000831061038a576d04ee2d6d415b85acef8100000000830492506020015b662386f26fc1000083106103a857662386f26fc10000830492506010015b6305f5e10083106103c0576305f5e100830492506008015b61271083106103d457612710830492506004015b606483106103e6576064830492506002015b600a831061023b5760010192915050565b5f60208284031215610407575f80fd5b81516001600160a01b038116811461041d575f80fd5b9392505050565b634e487b7160e01b5f52604160045260245ffd5b600181811c9082168061044c57607f821691505b60208210810361046a57634e487b7160e01b5f52602260045260245ffd5b50919050565b601f8211156104b757805f5260205f20601f840160051c810160208510156104955750805b601f840160051c820191505b818110156104b4575f81556001016104a1565b50505b505050565b81516001600160401b038111156104d5576104d5610424565b6104e9816104e38454610438565b84610470565b602080601f83116001811461051c575f84156105055750858301515b5f19600386901b1c1916600185901b178555610573565b5f85815260208120601f198616915b8281101561054a5788860151825594840194600190910190840161052b565b508582101561056757878501515f19600388901b60f8161c191681555b505060018460011b0185555b505050505050565b5f602080835283518060208501525f5b818110156105a75785810183015185820160400152820161058b565b505f604082860101526040601f19601f8301168501019250505092915050565b8051602080830151919081101561046a575f1960209190910360031b1b16919050565b60805160a05160c05160e05161010051610120516101405161225861062c5f395f61124401525f61121301525f50505f50505f50505f50505f50506122585ff3fe608060405234801561000f575f80fd5b5060043610610114575f3560e01c806362b25629116100ad578063a4751ce11161007d578063c7d8298c11610063578063c7d8298c14610278578063d09624571461028b578063fcb37e591461029e575f80fd5b8063a4751ce114610252578063a82d545d14610265575f80fd5b806362b25629146101fe5780636e1cbad91461021157806384b0196e14610224578063906c15ad1461023f575f80fd5b806343192881116100e857806343192881146101665780634dd93ecf146101b85780635323bd4c146101cb5780635cb1dbe4146101eb575f80fd5b8062cb851a146101185780632525098f1461012d5780632a1ae1b01461014057806337f7e9d814610153575b5f80fd5b61012b610126366004611744565b6102b1565b005b61012b61013b3660046117f5565b610420565b61012b61014e366004611744565b610580565b61012b610161366004611744565b610688565b6101a3610174366004611926565b81516020818401810180516005825292820194820194909420919093529091525f908152604090205460ff1681565b60405190151581526020015b60405180910390f35b61012b6101c6366004611744565b610790565b6101de6101d9366004611975565b610898565b6040516101af9190611a22565b6101de6101f9366004611a34565b610958565b61012b61020c366004611744565b610a29565b6101de61021f366004611a9b565b610b31565b61022c610bf3565b6040516101af9796959493929190611ae3565b6101de61024d366004611ba3565b610c51565b6101de610260366004611c31565b610d3e565b61012b610273366004611c73565b610d71565b61012b610286366004611cc9565b610db2565b61012b6102993660046117f5565b610e08565b61012b6102ac366004611744565b610ee7565b84843373ffffffffffffffffffffffffffffffffffffffff1660025f9054906101000a900473ffffffffffffffffffffffffffffffffffffffff1673ffffffffffffffffffffffffffffffffffffffff16637ab77e4a6040518163ffffffff1660e01b8152600401602060405180830381865afa158015610334573d5f803e3d5ffd5b505050506040513d601f19601f820116820180604052508101906103589190611d5c565b73ffffffffffffffffffffffffffffffffffffffff16146103ac576040517f6297c9870000000000000000000000000000000000000000000000000000000081523360048201526024015b60405180910390fd5b5f6103be6103b985611e05565b610fef565b9050806103ca81611007565b60048a8a6040516103dc929190611e10565b908152602001604051809103902088886040516103fa929190611e10565b908152602001604051809103902090816104149190611eb6565b50505050505050505050565b828261042c82826110c3565b610464576040517f9f0dda4c0000000000000000000000000000000000000000000000000000000081523360048201526024016103a3565b60058585604051610476929190611e10565b908152604080516020928190038301902073ffffffffffffffffffffffffffffffffffffffff86165f908152925290205460ff161515600103610503576040517f7a88af3b00000000000000000000000000000000000000000000000000000000815233600482015273ffffffffffffffffffffffffffffffffffffffff841660248201526044016103a3565b600160058686604051610517929190611e10565b908152604080516020928190038301902073ffffffffffffffffffffffffffffffffffffffff969096165f9081529590915290932080547fffffffffffffffffffffffffffffffffffffffffffffffffffffffffffffff00169315159390931790925550505050565b84843373ffffffffffffffffffffffffffffffffffffffff1660025f9054906101000a900473ffffffffffffffffffffffffffffffffffffffff1673ffffffffffffffffffffffffffffffffffffffff16637ab77e4a6040518163ffffffff1660e01b8152600401602060405180830381865afa158015610603573d5f803e3d5ffd5b505050506040513d601f19601f820116820180604052508101906106279190611d5c565b73ffffffffffffffffffffffffffffffffffffffff1614610676576040517f6297c9870000000000000000000000000000000000000000000000000000000081523360048201526024016103a3565b5f6103be61068385611e05565b6111c4565b84843373ffffffffffffffffffffffffffffffffffffffff1660025f9054906101000a900473ffffffffffffffffffffffffffffffffffffffff1673ffffffffffffffffffffffffffffffffffffffff16637ab77e4a6040518163ffffffff1660e01b8152600401602060405180830381865afa15801561070b573d5f803e3d5ffd5b505050506040513d601f19601f8201168201806040525081019061072f9190611d5c565b73ffffffffffffffffffffffffffffffffffffffff161461077e576040517f6297c9870000000000000000000000000000000000000000000000000000000081523360048201526024016103a3565b5f6103be61078b85611e05565b6111d6565b84843373ffffffffffffffffffffffffffffffffffffffff1660025f9054906101000a900473ffffffffffffffffffffffffffffffffffffffff1673ffffffffffffffffffffffffffffffffffffffff16637ab77e4a6040518163ffffffff1660e01b8152600401602060405180830381865afa158015610813573d5f803e3d5ffd5b505050506040513d601f19601f820116820180604052508101906108379190611d5c565b73ffffffffffffffffffffffffffffffffffffffff1614610886576040517f6297c9870000000000000000000000000000000000000000000000000000000081523360048201526024016103a3565b5f6103be61089385611e05565b6111e8565b81516020818401810180516004825292820194820194909420919093528151808301840180519281529084019290930191909120915280546108d990611e1f565b80601f016020809104026020016040519081016040528092919081815260200182805461090590611e1f565b80156109505780601f1061092757610100808354040283529160200191610950565b820191905f5260205f20905b81548152906001019060200180831161093357829003601f168201915b505050505081565b60606004858560405161096c929190611e10565b9081526020016040518091039020838360405161098a929190611e10565b908152602001604051809103902080546109a390611e1f565b80601f01602080910402602001604051908101604052809291908181526020018280546109cf90611e1f565b8015610a1a5780601f106109f157610100808354040283529160200191610a1a565b820191905f5260205f20905b8154815290600101906020018083116109fd57829003601f168201915b50505050509050949350505050565b84843373ffffffffffffffffffffffffffffffffffffffff1660025f9054906101000a900473ffffffffffffffffffffffffffffffffffffffff1673ffffffffffffffffffffffffffffffffffffffff16637ab77e4a6040518163ffffffff1660e01b8152600401602060405180830381865afa158015610aac573d5f803e3d5ffd5b505050506040513d601f19601f82011682018060405250810190610ad09190611d5c565b73ffffffffffffffffffffffffffffffffffffffff1614610b1f576040517f6297c9870000000000000000000000000000000000000000000000000000000081523360048201526024016103a3565b5f6103be610b2c85611e05565b6111fa565b606060038484604051610b45929190611e10565b90815260200160405180910390205f8381526020019081526020015f208054610b6d90611e1f565b80601f0160208091040260200160405190810160405280929190818152602001828054610b9990611e1f565b8015610be45780601f10610bbb57610100808354040283529160200191610be4565b820191905f5260205f20905b815481529060010190602001808311610bc757829003601f168201915b505050505090505b9392505050565b5f6060805f805f6060610c0461120c565b610c0c61123d565b604080515f808252602082019092527f0f000000000000000000000000000000000000000000000000000000000000009b939a50919850469750309650945092509050565b60605f60048686604051610c66929190611e10565b90815260200160405180910390208484604051610c84929190611e10565b90815260200160405180910390208054610c9d90611e1f565b80601f0160208091040260200160405190810160405280929190818152602001828054610cc990611e1f565b8015610d145780601f10610ceb57610100808354040283529160200191610d14565b820191905f5260205f20905b815481529060010190602001808311610cf757829003601f168201915b505050505090505f610d258261126a565b9050610d328189356112cb565b98975050505050505050565b81516020818401810180516003825292820194820194909420919093529091525f9081526040902080546108d990611e1f565b818160038787604051610d85929190611e10565b90815260408051602092819003830190205f8881529252902091610daa919083611fb0565b505050505050565b818160048888604051610dc6929190611e10565b90815260200160405180910390208686604051610de4929190611e10565b90815260200160405180910390209182610dff929190611fb0565b50505050505050565b8282610e1482826110c3565b610e4c576040517f9f0dda4c0000000000000000000000000000000000000000000000000000000081523360048201526024016103a3565b60058585604051610e5e929190611e10565b9081526040805160209281900383019020335f908152925281205460ff1615159003610ed4576040517f7a88af3b00000000000000000000000000000000000000000000000000000000815233600482015273ffffffffffffffffffffffffffffffffffffffff841660248201526044016103a3565b5f60058686604051610517929190611e10565b84843373ffffffffffffffffffffffffffffffffffffffff1660025f9054906101000a900473ffffffffffffffffffffffffffffffffffffffff1673ffffffffffffffffffffffffffffffffffffffff16637ab77e4a6040518163ffffffff1660e01b8152600401602060405180830381865afa158015610f6a573d5f803e3d5ffd5b505050506040513d601f19601f82011682018060405250810190610f8e9190611d5c565b73ffffffffffffffffffffffffffffffffffffffff1614610fdd576040517f6297c9870000000000000000000000000000000000000000000000000000000081523360048201526024016103a3565b5f6103be610fea85611e05565b6112f3565b5f611001825f01518360200151611305565b92915050565b60605f61101383611312565b60010190505f8167ffffffffffffffff81111561103257611032611848565b6040519080825280601f01601f19166020018201604052801561105c576020820181803683370190505b5090508181016020015b7fffffffffffffffffffffffffffffffffffffffffffffffffffffffffffffffff017f3031323334353637383961626364656600000000000000000000000000000000600a86061a8153600a850494508461106657509392505050565b5f3373ffffffffffffffffffffffffffffffffffffffff1660025f9054906101000a900473ffffffffffffffffffffffffffffffffffffffff1673ffffffffffffffffffffffffffffffffffffffff16637ab77e4a6040518163ffffffff1660e01b8152600401602060405180830381865afa158015611145573d5f803e3d5ffd5b505050506040513d601f19601f820116820180604052508101906111699190611d5c565b73ffffffffffffffffffffffffffffffffffffffff161480610bec575060058383604051611198929190611e10565b90815260408051918290036020908101909220335f908152925290205460ff1615156001149392505050565b5f611001825f015183602001516113f3565b5f611001825f01518360200151611400565b5f611001825f0151836020015161140d565b5f611001825f0151836020015161141a565b60606112387f00000000000000000000000000000000000000000000000000000000000000005f611426565b905090565b60606112387f00000000000000000000000000000000000000000000000000000000000000006001611426565b5f80805b83518110156112c4575f603085838151811061128c5761128c6120a8565b016020015161129e919060f81c612102565b60ff169050806112af84600a61211b565b6112b99190612132565b92505060010161126e565b5092915050565b6060826112de576112db5f6114cf565b92505b826112eb600582856114dc565b949350505050565b5f611001825f01518360200151611569565b5f610bec83600584611572565b5f807a184f03e93ff9f4daa797ed6e38ed64bf6a1f010000000000000000831061135a577a184f03e93ff9f4daa797ed6e38ed64bf6a1f010000000000000000830492506040015b6d04ee2d6d415b85acef81000000008310611386576d04ee2d6d415b85acef8100000000830492506020015b662386f26fc1000083106113a457662386f26fc10000830492506010015b6305f5e10083106113bc576305f5e100830492506008015b61271083106113d057612710830492506004015b606483106113e2576064830492506002015b600a83106110015760010192915050565b5f610bec83600284611572565b5f610bec83600384611572565b5f610bec83600184611572565b5f610bec835f84611572565b606060ff8314611440576114398361160f565b9050611001565b81805461144c90611e1f565b80601f016020809104026020016040519081016040528092919081815260200182805461147890611e1f565b80156114c35780601f1061149a576101008083540402835291602001916114c3565b820191905f5260205f20905b8154815290600101906020018083116114a657829003601f168201915b50505050509050611001565b5f6110018260055f61164c565b6060608063a1848ff3856114ef8661167f565b6040805160208101889052016040516020818303038152906040526040518463ffffffff1660e01b815260040161152893929190612145565b5f60405180830381865afa158015611542573d5f803e3d5ffd5b505050506040513d5f823e601f3d908101601f191682016040526112eb91908101906121aa565b5f610bec836004845b6040517f21b50ba30000000000000000000000000000000000000000000000000000000081525f906060906080906321b50ba3906115b8908790899088906004016121ef565b5f60405180830381865afa1580156115d2573d5f803e3d5ffd5b505050506040513d5f823e601f3d908101601f191682016040526115f991908101906121aa565b9050611606816020015190565b95945050505050565b60605f61161b836116a9565b6040805160208082528183019092529192505f91906020820181803683375050509182525060208101929092525090565b5f6060608063ba19ac2861165f8761167f565b86866040518463ffffffff1660e01b81526004016115b89392919061221d565b60408051602080825281830190925260609160208201818036833750505060208101929092525090565b5f60ff8216601f811115611001576040517fb3512b0c00000000000000000000000000000000000000000000000000000000815260040160405180910390fd5b5f8083601f8401126116f9575f80fd5b50813567ffffffffffffffff811115611710575f80fd5b602083019150836020828501011115611727575f80fd5b9250929050565b5f6040828403121561173e575f80fd5b50919050565b5f805f805f60608688031215611758575f80fd5b853567ffffffffffffffff8082111561176f575f80fd5b61177b89838a016116e9565b90975095506020880135915080821115611793575f80fd5b61179f89838a016116e9565b909550935060408801359150808211156117b7575f80fd5b506117c48882890161172e565b9150509295509295909350565b73ffffffffffffffffffffffffffffffffffffffff811681146117f2575f80fd5b50565b5f805f60408486031215611807575f80fd5b833567ffffffffffffffff81111561181d575f80fd5b611829868287016116e9565b909450925050602084013561183d816117d1565b809150509250925092565b7f4e487b71000000000000000000000000000000000000000000000000000000005f52604160045260245ffd5b604051601f8201601f1916810167ffffffffffffffff8111828210171561189e5761189e611848565b604052919050565b5f67ffffffffffffffff8211156118bf576118bf611848565b50601f01601f191660200190565b5f6118df6118da846118a6565b611875565b90508281528383830111156118f2575f80fd5b828260208301375f602084830101529392505050565b5f82601f830112611917575f80fd5b610bec838335602085016118cd565b5f8060408385031215611937575f80fd5b823567ffffffffffffffff81111561194d575f80fd5b61195985828601611908565b925050602083013561196a816117d1565b809150509250929050565b5f8060408385031215611986575f80fd5b823567ffffffffffffffff8082111561199d575f80fd5b6119a986838701611908565b935060208501359150808211156119be575f80fd5b506119cb85828601611908565b9150509250929050565b5f5b838110156119ef5781810151838201526020016119d7565b50505f910152565b5f8151808452611a0e8160208601602086016119d5565b601f01601f19169290920160200192915050565b602081525f610bec60208301846119f7565b5f805f8060408587031215611a47575f80fd5b843567ffffffffffffffff80821115611a5e575f80fd5b611a6a888389016116e9565b90965094506020870135915080821115611a82575f80fd5b50611a8f878288016116e9565b95989497509550505050565b5f805f60408486031215611aad575f80fd5b833567ffffffffffffffff811115611ac3575f80fd5b611acf868287016116e9565b909790965060209590950135949350505050565b7fff00000000000000000000000000000000000000000000000000000000000000881681525f602060e06020840152611b1f60e084018a6119f7565b8381036040850152611b31818a6119f7565b6060850189905273ffffffffffffffffffffffffffffffffffffffff8816608086015260a0850187905284810360c0860152855180825260208088019350909101905f5b81811015611b9157835183529284019291840191600101611b75565b50909c9b505050505050505050505050565b5f805f805f60608688031215611bb7575f80fd5b853567ffffffffffffffff80821115611bce575f80fd5b611bda89838a0161172e565b96506020880135915080821115611bef575f80fd5b611bfb89838a016116e9565b90965094506040880135915080821115611c13575f80fd5b50611c20888289016116e9565b969995985093965092949392505050565b5f8060408385031215611c42575f80fd5b823567ffffffffffffffff811115611c58575f80fd5b611c6485828601611908565b95602094909401359450505050565b5f805f805f60608688031215611c87575f80fd5b853567ffffffffffffffff80821115611c9e575f80fd5b611caa89838a016116e9565b9097509550602088013594506040880135915080821115611c13575f80fd5b5f805f805f8060608789031215611cde575f80fd5b863567ffffffffffffffff80821115611cf5575f80fd5b611d018a838b016116e9565b90985096506020890135915080821115611d19575f80fd5b611d258a838b016116e9565b90965094506040890135915080821115611d3d575f80fd5b50611d4a89828a016116e9565b979a9699509497509295939492505050565b5f60208284031215611d6c575f80fd5b8151610bec816117d1565b5f60408284031215611d87575f80fd5b6040516040810167ffffffffffffffff8282108183111715611dab57611dab611848565b816040528293508435915080821115611dc2575f80fd5b508301601f81018513611dd3575f80fd5b611de2858235602084016118cd565b82525060208301358060030b8114611df8575f80fd5b6020919091015292915050565b5f6110013683611d77565b818382375f9101908152919050565b600181811c90821680611e3357607f821691505b60208210810361173e577f4e487b71000000000000000000000000000000000000000000000000000000005f52602260045260245ffd5b601f821115611eb157805f5260205f20601f840160051c81016020851015611e8f5750805b601f840160051c820191505b81811015611eae575f8155600101611e9b565b50505b505050565b815167ffffffffffffffff811115611ed057611ed0611848565b611ee481611ede8454611e1f565b84611e6a565b602080601f831160018114611f36575f8415611f005750858301515b7fffffffffffffffffffffffffffffffffffffffffffffffffffffffffffffffff600386901b1c1916600185901b178555610daa565b5f85815260208120601f198616915b82811015611f6457888601518255948401946001909101908401611f45565b5085821015611fa057878501517fffffffffffffffffffffffffffffffffffffffffffffffffffffffffffffffff600388901b60f8161c191681555b5050505050600190811b01905550565b67ffffffffffffffff831115611fc857611fc8611848565b611fdc83611fd68354611e1f565b83611e6a565b5f601f84116001811461202c575f8515611ff65750838201355b7fffffffffffffffffffffffffffffffffffffffffffffffffffffffffffffffff600387901b1c1916600186901b178355611eae565b5f83815260208120601f198716915b8281101561205b578685013582556020948501946001909201910161203b565b5086821015612096577fffffffffffffffffffffffffffffffffffffffffffffffffffffffffffffffff60f88860031b161c19848701351681555b505060018560011b0183555050505050565b7f4e487b71000000000000000000000000000000000000000000000000000000005f52603260045260245ffd5b7f4e487b71000000000000000000000000000000000000000000000000000000005f52601160045260245ffd5b60ff8281168282160390811115611001576110016120d5565b8082028115828204841417611001576110016120d5565b80820180821115611001576110016120d5565b60ff84168152606060208201525f61216060608301856119f7565b828103604084015261217281856119f7565b9695505050505050565b5f6121896118da846118a6565b905082815283838301111561219c575f80fd5b610bec8360208301846119d5565b5f602082840312156121ba575f80fd5b815167ffffffffffffffff8111156121d0575f80fd5b8201601f810184136121e0575f80fd5b6112eb8482516020840161217c565b60ff84168152606060208201525f61220a60608301856119f7565b90508260030b6040830152949350505050565b606081525f61222f60608301866119f7565b905060ff841660208301528260030b604083015294935050505056fea164736f6c6343000819000a",
        "linkReferences": {}
    },
    "methodIdentifiers": {
        "addNewDelegate(string,address)": "2525098f",
        "addrRecords(string,uint256)": "a4751ce1",
        "delegates(string,address)": "43192881",
        "eip712Domain()": "84b0196e",
        "getAddrRecord(string,uint256)": "6e1cbad9",
        "getEncTextRecord((bytes32,bytes),string,string)": "906c15ad",
        "getTextRecord(string,string)": "5cb1dbe4",
        "removeDelegate(string,address)": "d0962457",
        "setAddrRecord(string,uint256,bytes)": "a82d545d",
        "setEuint128TextRecord(string,string,(bytes,int32))": "fcb37e59",
        "setEuint16TextRecord(string,string,(bytes,int32))": "4dd93ecf",
        "setEuint256TextRecord(string,string,(bytes,int32))": "00cb851a",
        "setEuint32TextRecord(string,string,(bytes,int32))": "2a1ae1b0",
        "setEuint64TextRecord(string,string,(bytes,int32))": "37f7e9d8",
        "setEuint8TextRecord(string,string,(bytes,int32))": "62b25629",
        "setTextRecord(string,string,string)": "c7d8298c",
        "textRecords(string,string)": "5323bd4c"
    },
    "id": 42
}