{"abi":[{"type":"constructor","inputs":[{"name":"_registry","type":"address","internalType":"address"}],"stateMutability":"nonpayable"},{"type":"function","name":"addNewDelegate","inputs":[{"name":"id","type":"string","internalType":"string"},{"name":"newDelegate","type":"address","internalType":"address"}],"outputs":[],"stateMutability":"nonpayable"},{"type":"function","name":"eip712Domain","inputs":[],"outputs":[{"name":"fields","type":"bytes1","internalType":"bytes1"},{"name":"name","type":"string","internalType":"string"},{"name":"version","type":"string","internalType":"string"},{"name":"chainId","type":"uint256","internalType":"uint256"},{"name":"verifyingContract","type":"address","internalType":"address"},{"name":"salt","type":"bytes32","internalType":"bytes32"},{"name":"extensions","type":"uint256[]","internalType":"uint256[]"}],"stateMutability":"view"},{"type":"function","name":"getAddrRecord","inputs":[{"name":"id","type":"string","internalType":"string"},{"name":"coinType","type":"uint256","internalType":"uint256"}],"outputs":[{"name":"","type":"bytes","internalType":"bytes"}],"stateMutability":"view"},{"type":"function","name":"getEncTextRecord","inputs":[{"name":"permission","type":"tuple","internalType":"struct Permission","components":[{"name":"publicKey","type":"bytes32","internalType":"bytes32"},{"name":"signature","type":"bytes","internalType":"bytes"}]},{"name":"id","type":"string","internalType":"string"},{"name":"key","type":"string","internalType":"string"}],"outputs":[{"name":"","type":"string","internalType":"string"}],"stateMutability":"view"},{"type":"function","name":"getTextRecord","inputs":[{"name":"id","type":"string","internalType":"string"},{"name":"key","type":"string","internalType":"string"}],"outputs":[{"name":"","type":"string","internalType":"string"}],"stateMutability":"view"},{"type":"function","name":"removeDelegate","inputs":[{"name":"id","type":"string","internalType":"string"},{"name":"delegate","type":"address","internalType":"address"}],"outputs":[],"stateMutability":"nonpayable"},{"type":"function","name":"setAddrRecord","inputs":[{"name":"id","type":"string","internalType":"string"},{"name":"coinType","type":"uint256","internalType":"uint256"},{"name":"addr","type":"bytes","internalType":"bytes"}],"outputs":[],"stateMutability":"nonpayable"},{"type":"function","name":"setEuint128TextRecord","inputs":[{"name":"id","type":"string","internalType":"string"},{"name":"key","type":"string","internalType":"string"},{"name":"value","type":"tuple","internalType":"struct inEuint128","components":[{"name":"data","type":"bytes","internalType":"bytes"},{"name":"securityZone","type":"int32","internalType":"int32"}]}],"outputs":[],"stateMutability":"nonpayable"},{"type":"function","name":"setEuint16TextRecord","inputs":[{"name":"id","type":"string","internalType":"string"},{"name":"key","type":"string","internalType":"string"},{"name":"value","type":"tuple","internalType":"struct inEuint16","components":[{"name":"data","type":"bytes","internalType":"bytes"},{"name":"securityZone","type":"int32","internalType":"int32"}]}],"outputs":[],"stateMutability":"nonpayable"},{"type":"function","name":"setEuint256TextRecord","inputs":[{"name":"id","type":"string","internalType":"string"},{"name":"key","type":"string","internalType":"string"},{"name":"value","type":"tuple","internalType":"struct inEuint256","components":[{"name":"data","type":"bytes","internalType":"bytes"},{"name":"securityZone","type":"int32","internalType":"int32"}]}],"outputs":[],"stateMutability":"nonpayable"},{"type":"function","name":"setEuint32TextRecord","inputs":[{"name":"id","type":"string","internalType":"string"},{"name":"key","type":"string","internalType":"string"},{"name":"value","type":"tuple","internalType":"struct inEuint32","components":[{"name":"data","type":"bytes","internalType":"bytes"},{"name":"securityZone","type":"int32","internalType":"int32"}]}],"outputs":[],"stateMutability":"nonpayable"},{"type":"function","name":"setEuint64TextRecord","inputs":[{"name":"id","type":"string","internalType":"string"},{"name":"key","type":"string","internalType":"string"},{"name":"value","type":"tuple","internalType":"struct inEuint64","components":[{"name":"data","type":"bytes","internalType":"bytes"},{"name":"securityZone","type":"int32","internalType":"int32"}]}],"outputs":[],"stateMutability":"nonpayable"},{"type":"function","name":"setEuint8TextRecord","inputs":[{"name":"id","type":"string","internalType":"string"},{"name":"key","type":"string","internalType":"string"},{"name":"value","type":"tuple","internalType":"struct inEuint8","components":[{"name":"data","type":"bytes","internalType":"bytes"},{"name":"securityZone","type":"int32","internalType":"int32"}]}],"outputs":[],"stateMutability":"nonpayable"},{"type":"function","name":"setTextRecord","inputs":[{"name":"id","type":"string","internalType":"string"},{"name":"key","type":"string","internalType":"string"},{"name":"value","type":"string","internalType":"string"}],"outputs":[],"stateMutability":"nonpayable"},{"type":"function","name":"textRecords","inputs":[{"name":"id","type":"string","internalType":"string"},{"name":"key","type":"string","internalType":"string"}],"outputs":[{"name":"value","type":"string","internalType":"string"}],"stateMutability":"view"},{"type":"event","name":"EIP712DomainChanged","inputs":[],"anonymous":false},{"type":"event","name":"testEvent","inputs":[{"name":"","type":"uint256","indexed":false,"internalType":"euint8"},{"name":"","type":"uint256","indexed":false,"internalType":"uint256"}],"anonymous":false},{"type":"error","name":"InvalidShortString","inputs":[]},{"type":"error","name":"L2REgistry__DelegateAlreadyChanged","inputs":[{"name":"assigner","type":"address","internalType":"address"},{"name":"delegate","type":"address","internalType":"address"}]},{"type":"error","name":"L2Registry__UnauthorizedAssign","inputs":[{"name":"user","type":"address","internalType":"address"}]},{"type":"error","name":"L2Registry__UnauthorizedRead","inputs":[{"name":"user","type":"address","internalType":"address"}]},{"type":"error","name":"L2Registry__UnauthorizedWrite","inputs":[{"name":"user","type":"address","internalType":"address"}]},{"type":"error","name":"SignerNotMessageSender","inputs":[]},{"type":"error","name":"SignerNotOwner","inputs":[]},{"type":"error","name":"StringTooLong","inputs":[{"name":"str","type":"string","internalType":"string"}]}],"bytecode":{"object":"0x610160604052348015610010575f80fd5b50604051612a27380380612a2783398101604081905261002f916103f1565b6040805180820182526011815270233432b734bc102832b936b4b9b9b4b7b760791b602080830191909152825180840190935260038352620312e360ec1b908301529061007c825f610209565b6101205261008b816001610209565b61014052815160208084019190912060e052815190820120610100524660a05261011760e05161010051604080517f8b73c3c69bb8fe3d512ecc4cf759cc79239f7b179b0ffacaa9a75d522b39400f60208201529081019290925260608201524660808201523060a08201525f9060c00160405160208183030381529060405280519060200120905090565b60805250503060c052604080516051602082015201604051602081830303815290604052600360405161015e906d0daca5ccadcc6d8c2ecca5ccae8d60931b8152600e0190565b90815260408051602092819003830190205f808052925290209061018290826104b6565b5061018d600a61023b565b6040516d0daca5ccadcc6d8c2ecca5ccae8d60931b8152600490600e01908152604051908190036020018120651cd958dc995d60d21b825290600601908152602001604051809103902090816101e391906104b6565b50600280546001600160a01b0319166001600160a01b03929092169190911790556105e4565b5f6020835110156102245761021d836102ca565b9050610235565b8161022f84826104b6565b5060ff90505b92915050565b60605f61024783610310565b60010190505f816001600160401b038111156102655761026561041e565b6040519080825280601f01601f19166020018201604052801561028f576020820181803683370190505b5090508181016020015b5f19016f181899199a1a9b1b9c1cb0b131b232b360811b600a86061a8153600a850494508461029957509392505050565b5f80829050601f815111156102fd578260405163305a27a960e01b81526004016102f49190610575565b60405180910390fd5b8051610308826105c1565b179392505050565b5f807a184f03e93ff9f4daa797ed6e38ed64bf6a1f0100000000000000008310610358577a184f03e93ff9f4daa797ed6e38ed64bf6a1f010000000000000000830492506040015b6d04ee2d6d415b85acef81000000008310610384576d04ee2d6d415b85acef8100000000830492506020015b662386f26fc1000083106103a257662386f26fc10000830492506010015b6305f5e10083106103ba576305f5e100830492506008015b61271083106103ce57612710830492506004015b606483106103e0576064830492506002015b600a83106102355760010192915050565b5f60208284031215610401575f80fd5b81516001600160a01b0381168114610417575f80fd5b9392505050565b634e487b7160e01b5f52604160045260245ffd5b600181811c9082168061044657607f821691505b60208210810361046457634e487b7160e01b5f52602260045260245ffd5b50919050565b601f8211156104b157805f5260205f20601f840160051c8101602085101561048f5750805b601f840160051c820191505b818110156104ae575f815560010161049b565b50505b505050565b81516001600160401b038111156104cf576104cf61041e565b6104e3816104dd8454610432565b8461046a565b602080601f831160018114610516575f84156104ff5750858301515b5f19600386901b1c1916600185901b17855561056d565b5f85815260208120601f198616915b8281101561054457888601518255948401946001909101908401610525565b508582101561056157878501515f19600388901b60f8161c191681555b505060018460011b0185555b505050505050565b5f602080835283518060208501525f5b818110156105a157858101830151858201604001528201610585565b505f604082860101526040601f19601f8301168501019250505092915050565b80516020808301519190811015610464575f1960209190910360031b1b16919050565b60805160a05160c05160e0516101005161012051610140516124016106265f395f61156101525f61153001525f50505f50505f50505f50505f50506124015ff3fe608060405234801561000f575f80fd5b50600436106100ef575f3560e01c806362b2562911610093578063a82d545d11610063578063a82d545d146101e4578063c7d8298c146101f7578063d09624571461020a578063fcb37e591461021d575f80fd5b806362b25629146101905780636e1cbad9146101a357806384b0196e146101b6578063906c15ad146101d1575f80fd5b806337f7e9d8116100ce57806337f7e9d81461012e5780634dd93ecf146101415780635323bd4c146101545780635cb1dbe41461017d575f80fd5b8062cb851a146100f35780632525098f146101085780632a1ae1b01461011b575b5f80fd5b610106610101366004611a00565b610230565b005b610106610116366004611ab1565b61039f565b610106610129366004611a00565b6104ff565b61010661013c366004611a00565b610607565b61010661014f366004611a00565b61070f565b610167610162366004611be2565b610817565b6040516101749190611c8f565b60405180910390f35b61016761018b366004611ca1565b6108d7565b61010661019e366004611a00565b6109ee565b6101676101b1366004611d08565b610b75565b6101be610c7c565b6040516101749796959493929190611d50565b6101676101df366004611e10565b610cda565b6101066101f2366004611e9e565b610e9d565b610106610205366004611ef4565b610fd6565b610106610218366004611ab1565b611124565b61010661022b366004611a00565b611203565b84843373ffffffffffffffffffffffffffffffffffffffff1660025f9054906101000a900473ffffffffffffffffffffffffffffffffffffffff1673ffffffffffffffffffffffffffffffffffffffff16637ab77e4a6040518163ffffffff1660e01b8152600401602060405180830381865afa1580156102b3573d5f803e3d5ffd5b505050506040513d601f19601f820116820180604052508101906102d79190611f87565b73ffffffffffffffffffffffffffffffffffffffff161461032b576040517f6297c9870000000000000000000000000000000000000000000000000000000081523360048201526024015b60405180910390fd5b5f61033d61033885612030565b61130b565b90508061034981611323565b60048a8a60405161035b92919061203b565b9081526020016040518091039020888860405161037992919061203b565b9081526020016040518091039020908161039391906120e1565b50505050505050505050565b82826103ab82826113df565b6103e3576040517f9f0dda4c000000000000000000000000000000000000000000000000000000008152336004820152602401610322565b600585856040516103f592919061203b565b908152604080516020928190038301902073ffffffffffffffffffffffffffffffffffffffff86165f908152925290205460ff161515600103610482576040517f7a88af3b00000000000000000000000000000000000000000000000000000000815233600482015273ffffffffffffffffffffffffffffffffffffffff84166024820152604401610322565b60016005868660405161049692919061203b565b908152604080516020928190038301902073ffffffffffffffffffffffffffffffffffffffff969096165f9081529590915290932080547fffffffffffffffffffffffffffffffffffffffffffffffffffffffffffffff00169315159390931790925550505050565b84843373ffffffffffffffffffffffffffffffffffffffff1660025f9054906101000a900473ffffffffffffffffffffffffffffffffffffffff1673ffffffffffffffffffffffffffffffffffffffff16637ab77e4a6040518163ffffffff1660e01b8152600401602060405180830381865afa158015610582573d5f803e3d5ffd5b505050506040513d601f19601f820116820180604052508101906105a69190611f87565b73ffffffffffffffffffffffffffffffffffffffff16146105f5576040517f6297c987000000000000000000000000000000000000000000000000000000008152336004820152602401610322565b5f61033d61060285612030565b6114e1565b84843373ffffffffffffffffffffffffffffffffffffffff1660025f9054906101000a900473ffffffffffffffffffffffffffffffffffffffff1673ffffffffffffffffffffffffffffffffffffffff16637ab77e4a6040518163ffffffff1660e01b8152600401602060405180830381865afa15801561068a573d5f803e3d5ffd5b505050506040513d601f19601f820116820180604052508101906106ae9190611f87565b73ffffffffffffffffffffffffffffffffffffffff16146106fd576040517f6297c987000000000000000000000000000000000000000000000000000000008152336004820152602401610322565b5f61033d61070a85612030565b6114f3565b84843373ffffffffffffffffffffffffffffffffffffffff1660025f9054906101000a900473ffffffffffffffffffffffffffffffffffffffff1673ffffffffffffffffffffffffffffffffffffffff16637ab77e4a6040518163ffffffff1660e01b8152600401602060405180830381865afa158015610792573d5f803e3d5ffd5b505050506040513d601f19601f820116820180604052508101906107b69190611f87565b73ffffffffffffffffffffffffffffffffffffffff1614610805576040517f6297c987000000000000000000000000000000000000000000000000000000008152336004820152602401610322565b5f61033d61081285612030565b611505565b81516020818401810180516004825292820194820194909420919093528151808301840180519281529084019290930191909120915280546108589061204a565b80601f01602080910402602001604051908101604052809291908181526020018280546108849061204a565b80156108cf5780601f106108a6576101008083540402835291602001916108cf565b820191905f5260205f20905b8154815290600101906020018083116108b257829003601f168201915b505050505081565b606084846108e582826113df565b61091d576040517f3a112149000000000000000000000000000000000000000000000000000000008152336004820152602401610322565b6004878760405161092f92919061203b565b9081526020016040518091039020858560405161094d92919061203b565b908152602001604051809103902080546109669061204a565b80601f01602080910402602001604051908101604052809291908181526020018280546109929061204a565b80156109dd5780601f106109b4576101008083540402835291602001916109dd565b820191905f5260205f20905b8154815290600101906020018083116109c057829003601f168201915b505050505092505050949350505050565b84843373ffffffffffffffffffffffffffffffffffffffff1660025f9054906101000a900473ffffffffffffffffffffffffffffffffffffffff1673ffffffffffffffffffffffffffffffffffffffff16637ab77e4a6040518163ffffffff1660e01b8152600401602060405180830381865afa158015610a71573d5f803e3d5ffd5b505050506040513d601f19601f82011682018060405250810190610a959190611f87565b73ffffffffffffffffffffffffffffffffffffffff1614610ae4576040517f6297c987000000000000000000000000000000000000000000000000000000008152336004820152602401610322565b5f610af6610af185612030565b611517565b604080518281525f60208201529192507f426a83d0e331a9e0561260afbd697734dadb4553fa48e50cfeafac124ed1c3c5910160405180910390a1604080518281526020810183905282917f426a83d0e331a9e0561260afbd697734dadb4553fa48e50cfeafac124ed1c3c5910160405180910390a161034981611323565b60608383610b8382826113df565b610bbb576040517f3a112149000000000000000000000000000000000000000000000000000000008152336004820152602401610322565b60038686604051610bcd92919061203b565b90815260200160405180910390205f8581526020019081526020015f208054610bf59061204a565b80601f0160208091040260200160405190810160405280929190818152602001828054610c219061204a565b8015610c6c5780601f10610c4357610100808354040283529160200191610c6c565b820191905f5260205f20905b815481529060010190602001808311610c4f57829003601f168201915b5050505050925050509392505050565b5f6060805f805f6060610c8d611529565b610c9561155a565b604080515f808252602082019092527f0f000000000000000000000000000000000000000000000000000000000000009b939a50919850469750309650945092509050565b60608484610ce882826113df565b610d20576040517f3a112149000000000000000000000000000000000000000000000000000000008152336004820152602401610322565b5f60048888604051610d3392919061203b565b90815260200160405180910390208686604051610d5192919061203b565b90815260200160405180910390208054610d6a9061204a565b80601f0160208091040260200160405190810160405280929190818152602001828054610d969061204a565b8015610de15780601f10610db857610100808354040283529160200191610de1565b820191905f5260205f20905b815481529060010190602001808311610dc457829003601f168201915b50506040517f70121b710000000000000000000000000000000000000000000000000000000081529394505f9373__$6e9f22e923764f2a7fb3fc86851ac048b1$__93506370121b719250610e3b91508590600401611c8f565b602060405180830381865af4158015610e56573d5f803e3d5ffd5b505050506040513d601f19601f82011682018060405250810190610e7a91906121df565b9050610e8f610e8882611587565b8b35611594565b9a9950505050505050505050565b84843373ffffffffffffffffffffffffffffffffffffffff1660025f9054906101000a900473ffffffffffffffffffffffffffffffffffffffff1673ffffffffffffffffffffffffffffffffffffffff16637ab77e4a6040518163ffffffff1660e01b8152600401602060405180830381865afa158015610f20573d5f803e3d5ffd5b505050506040513d601f19601f82011682018060405250810190610f449190611f87565b73ffffffffffffffffffffffffffffffffffffffff1614610f93576040517f6297c987000000000000000000000000000000000000000000000000000000008152336004820152602401610322565b838360038989604051610fa792919061203b565b90815260408051602092819003830190205f8a81529252902091610fcc9190836121f6565b5050505050505050565b85853373ffffffffffffffffffffffffffffffffffffffff1660025f9054906101000a900473ffffffffffffffffffffffffffffffffffffffff1673ffffffffffffffffffffffffffffffffffffffff16637ab77e4a6040518163ffffffff1660e01b8152600401602060405180830381865afa158015611059573d5f803e3d5ffd5b505050506040513d601f19601f8201168201806040525081019061107d9190611f87565b73ffffffffffffffffffffffffffffffffffffffff16146110cc576040517f6297c987000000000000000000000000000000000000000000000000000000008152336004820152602401610322565b838360048a8a6040516110e092919061203b565b908152602001604051809103902088886040516110fe92919061203b565b908152602001604051809103902091826111199291906121f6565b505050505050505050565b828261113082826113df565b611168576040517f9f0dda4c000000000000000000000000000000000000000000000000000000008152336004820152602401610322565b6005858560405161117a92919061203b565b9081526040805160209281900383019020335f908152925281205460ff16151590036111f0576040517f7a88af3b00000000000000000000000000000000000000000000000000000000815233600482015273ffffffffffffffffffffffffffffffffffffffff84166024820152604401610322565b5f6005868660405161049692919061203b565b84843373ffffffffffffffffffffffffffffffffffffffff1660025f9054906101000a900473ffffffffffffffffffffffffffffffffffffffff1673ffffffffffffffffffffffffffffffffffffffff16637ab77e4a6040518163ffffffff1660e01b8152600401602060405180830381865afa158015611286573d5f803e3d5ffd5b505050506040513d601f19601f820116820180604052508101906112aa9190611f87565b73ffffffffffffffffffffffffffffffffffffffff16146112f9576040517f6297c987000000000000000000000000000000000000000000000000000000008152336004820152602401610322565b5f61033d61130685612030565b6115bc565b5f61131d825f015183602001516115ce565b92915050565b60605f61132f836115db565b60010190505f8167ffffffffffffffff81111561134e5761134e611b04565b6040519080825280601f01601f191660200182016040528015611378576020820181803683370190505b5090508181016020015b7fffffffffffffffffffffffffffffffffffffffffffffffffffffffffffffffff017f3031323334353637383961626364656600000000000000000000000000000000600a86061a8153600a850494508461138257509392505050565b5f3373ffffffffffffffffffffffffffffffffffffffff1660025f9054906101000a900473ffffffffffffffffffffffffffffffffffffffff1673ffffffffffffffffffffffffffffffffffffffff16637ab77e4a6040518163ffffffff1660e01b8152600401602060405180830381865afa158015611461573d5f803e3d5ffd5b505050506040513d601f19601f820116820180604052508101906114859190611f87565b73ffffffffffffffffffffffffffffffffffffffff1614806114da5750600583836040516114b492919061203b565b90815260408051918290036020908101909220335f908152925290205460ff1615156001145b9392505050565b5f61131d825f015183602001516116bc565b5f61131d825f015183602001516116c9565b5f61131d825f015183602001516116d6565b5f61131d825f015183602001516116e3565b60606115557f00000000000000000000000000000000000000000000000000000000000000005f6116ef565b905090565b60606115557f000000000000000000000000000000000000000000000000000000000000000060016116ef565b5f61131d8260055f611798565b6060826115a7576115a45f611587565b92505b826115b460058285611822565b949350505050565b5f61131d825f015183602001516118af565b5f6114da836005846118b8565b5f807a184f03e93ff9f4daa797ed6e38ed64bf6a1f0100000000000000008310611623577a184f03e93ff9f4daa797ed6e38ed64bf6a1f010000000000000000830492506040015b6d04ee2d6d415b85acef8100000000831061164f576d04ee2d6d415b85acef8100000000830492506020015b662386f26fc10000831061166d57662386f26fc10000830492506010015b6305f5e1008310611685576305f5e100830492506008015b612710831061169957612710830492506004015b606483106116ab576064830492506002015b600a831061131d5760010192915050565b5f6114da836002846118b8565b5f6114da836003846118b8565b5f6114da836001846118b8565b5f6114da835f846118b8565b606060ff831461170957611702836118fe565b905061131d565b8180546117159061204a565b80601f01602080910402602001604051908101604052809291908181526020018280546117419061204a565b801561178c5780601f106117635761010080835404028352916020019161178c565b820191905f5260205f20905b81548152906001019060200180831161176f57829003601f168201915b5050505050905061131d565b5f6060608063ba19ac286117ab8761193b565b86866040518463ffffffff1660e01b81526004016117cb939291906122ee565b5f60405180830381865afa1580156117e5573d5f803e3d5ffd5b505050506040513d5f823e601f3d908101601f1916820160405261180c919081019061234a565b9050611819816020015190565b95945050505050565b6060608063a1848ff3856118358661193b565b6040805160208101889052016040516020818303038152906040526040518463ffffffff1660e01b815260040161186e9392919061238f565b5f60405180830381865afa158015611888573d5f803e3d5ffd5b505050506040513d5f823e601f3d908101601f191682016040526115b4919081019061234a565b5f6114da836004845b6040517f21b50ba30000000000000000000000000000000000000000000000000000000081525f906060906080906321b50ba3906117cb908790899088906004016123c6565b60605f61190a83611965565b6040805160208082528183019092529192505f91906020820181803683375050509182525060208101929092525090565b60408051602080825281830190925260609160208201818036833750505060208101929092525090565b5f60ff8216601f81111561131d576040517fb3512b0c00000000000000000000000000000000000000000000000000000000815260040160405180910390fd5b5f8083601f8401126119b5575f80fd5b50813567ffffffffffffffff8111156119cc575f80fd5b6020830191508360208285010111156119e3575f80fd5b9250929050565b5f604082840312156119fa575f80fd5b50919050565b5f805f805f60608688031215611a14575f80fd5b853567ffffffffffffffff80821115611a2b575f80fd5b611a3789838a016119a5565b90975095506020880135915080821115611a4f575f80fd5b611a5b89838a016119a5565b90955093506040880135915080821115611a73575f80fd5b50611a80888289016119ea565b9150509295509295909350565b73ffffffffffffffffffffffffffffffffffffffff81168114611aae575f80fd5b50565b5f805f60408486031215611ac3575f80fd5b833567ffffffffffffffff811115611ad9575f80fd5b611ae5868287016119a5565b9094509250506020840135611af981611a8d565b809150509250925092565b7f4e487b71000000000000000000000000000000000000000000000000000000005f52604160045260245ffd5b604051601f8201601f1916810167ffffffffffffffff81118282101715611b5a57611b5a611b04565b604052919050565b5f67ffffffffffffffff821115611b7b57611b7b611b04565b50601f01601f191660200190565b5f611b9b611b9684611b62565b611b31565b9050828152838383011115611bae575f80fd5b828260208301375f602084830101529392505050565b5f82601f830112611bd3575f80fd5b6114da83833560208501611b89565b5f8060408385031215611bf3575f80fd5b823567ffffffffffffffff80821115611c0a575f80fd5b611c1686838701611bc4565b93506020850135915080821115611c2b575f80fd5b50611c3885828601611bc4565b9150509250929050565b5f5b83811015611c5c578181015183820152602001611c44565b50505f910152565b5f8151808452611c7b816020860160208601611c42565b601f01601f19169290920160200192915050565b602081525f6114da6020830184611c64565b5f805f8060408587031215611cb4575f80fd5b843567ffffffffffffffff80821115611ccb575f80fd5b611cd7888389016119a5565b90965094506020870135915080821115611cef575f80fd5b50611cfc878288016119a5565b95989497509550505050565b5f805f60408486031215611d1a575f80fd5b833567ffffffffffffffff811115611d30575f80fd5b611d3c868287016119a5565b909790965060209590950135949350505050565b7fff00000000000000000000000000000000000000000000000000000000000000881681525f602060e06020840152611d8c60e084018a611c64565b8381036040850152611d9e818a611c64565b6060850189905273ffffffffffffffffffffffffffffffffffffffff8816608086015260a0850187905284810360c0860152855180825260208088019350909101905f5b81811015611dfe57835183529284019291840191600101611de2565b50909c9b505050505050505050505050565b5f805f805f60608688031215611e24575f80fd5b853567ffffffffffffffff80821115611e3b575f80fd5b611e4789838a016119ea565b96506020880135915080821115611e5c575f80fd5b611e6889838a016119a5565b90965094506040880135915080821115611e80575f80fd5b50611e8d888289016119a5565b969995985093965092949392505050565b5f805f805f60608688031215611eb2575f80fd5b853567ffffffffffffffff80821115611ec9575f80fd5b611ed589838a016119a5565b9097509550602088013594506040880135915080821115611e80575f80fd5b5f805f805f8060608789031215611f09575f80fd5b863567ffffffffffffffff80821115611f20575f80fd5b611f2c8a838b016119a5565b90985096506020890135915080821115611f44575f80fd5b611f508a838b016119a5565b90965094506040890135915080821115611f68575f80fd5b50611f7589828a016119a5565b979a9699509497509295939492505050565b5f60208284031215611f97575f80fd5b81516114da81611a8d565b5f60408284031215611fb2575f80fd5b6040516040810167ffffffffffffffff8282108183111715611fd657611fd6611b04565b816040528293508435915080821115611fed575f80fd5b508301601f81018513611ffe575f80fd5b61200d85823560208401611b89565b82525060208301358060030b8114612023575f80fd5b6020919091015292915050565b5f61131d3683611fa2565b818382375f9101908152919050565b600181811c9082168061205e57607f821691505b6020821081036119fa577f4e487b71000000000000000000000000000000000000000000000000000000005f52602260045260245ffd5b601f8211156120dc57805f5260205f20601f840160051c810160208510156120ba5750805b601f840160051c820191505b818110156120d9575f81556001016120c6565b50505b505050565b815167ffffffffffffffff8111156120fb576120fb611b04565b61210f81612109845461204a565b84612095565b602080601f831160018114612161575f841561212b5750858301515b7fffffffffffffffffffffffffffffffffffffffffffffffffffffffffffffffff600386901b1c1916600185901b1785556121d7565b5f85815260208120601f198616915b8281101561218f57888601518255948401946001909101908401612170565b50858210156121cb57878501517fffffffffffffffffffffffffffffffffffffffffffffffffffffffffffffffff600388901b60f8161c191681555b505060018460011b0185555b505050505050565b5f602082840312156121ef575f80fd5b5051919050565b67ffffffffffffffff83111561220e5761220e611b04565b6122228361221c835461204a565b83612095565b5f601f841160018114612272575f851561223c5750838201355b7fffffffffffffffffffffffffffffffffffffffffffffffffffffffffffffffff600387901b1c1916600186901b1783556120d9565b5f83815260208120601f198716915b828110156122a15786850135825560209485019460019092019101612281565b50868210156122dc577fffffffffffffffffffffffffffffffffffffffffffffffffffffffffffffffff60f88860031b161c19848701351681555b505060018560011b0183555050505050565b606081525f6123006060830186611c64565b905060ff841660208301528260030b6040830152949350505050565b5f612329611b9684611b62565b905082815283838301111561233c575f80fd5b6114da836020830184611c42565b5f6020828403121561235a575f80fd5b815167ffffffffffffffff811115612370575f80fd5b8201601f81018413612380575f80fd5b6115b48482516020840161231c565b60ff84168152606060208201525f6123aa6060830185611c64565b82810360408401526123bc8185611c64565b9695505050505050565b60ff84168152606060208201525f6123e16060830185611c64565b90508260030b604083015294935050505056fea164736f6c6343000819000a","linkReferences":{"src/StringUtils.sol":{"StringUtils":[{"start":5174,"length":20}]}}},"methodIdentifiers":{"addNewDelegate(string,address)":"2525098f","eip712Domain()":"84b0196e","getAddrRecord(string,uint256)":"6e1cbad9","getEncTextRecord((bytes32,bytes),string,string)":"906c15ad","getTextRecord(string,string)":"5cb1dbe4","removeDelegate(string,address)":"d0962457","setAddrRecord(string,uint256,bytes)":"a82d545d","setEuint128TextRecord(string,string,(bytes,int32))":"fcb37e59","setEuint16TextRecord(string,string,(bytes,int32))":"4dd93ecf","setEuint256TextRecord(string,string,(bytes,int32))":"00cb851a","setEuint32TextRecord(string,string,(bytes,int32))":"2a1ae1b0","setEuint64TextRecord(string,string,(bytes,int32))":"37f7e9d8","setEuint8TextRecord(string,string,(bytes,int32))":"62b25629","setTextRecord(string,string,string)":"c7d8298c","textRecords(string,string)":"5323bd4c"},"id":39}