{"abi":[{"type":"constructor","inputs":[],"stateMutability":"nonpayable"},{"type":"function","name":"eip712Domain","inputs":[],"outputs":[{"name":"fields","type":"bytes1","internalType":"bytes1"},{"name":"name","type":"string","internalType":"string"},{"name":"version","type":"string","internalType":"string"},{"name":"chainId","type":"uint256","internalType":"uint256"},{"name":"verifyingContract","type":"address","internalType":"address"},{"name":"salt","type":"bytes32","internalType":"bytes32"},{"name":"extensions","type":"uint256[]","internalType":"uint256[]"}],"stateMutability":"view"},{"type":"function","name":"encTextRecords","inputs":[{"name":"id","type":"string","internalType":"string"},{"name":"key","type":"string","internalType":"string"}],"outputs":[{"name":"encValue","type":"uint256","internalType":"euint256"}],"stateMutability":"view"},{"type":"function","name":"getAddrRecord","inputs":[{"name":"id","type":"string","internalType":"string"},{"name":"coinType","type":"uint256","internalType":"uint256"}],"outputs":[{"name":"","type":"bytes","internalType":"bytes"}],"stateMutability":"view"},{"type":"function","name":"getEncTextRecord","inputs":[{"name":"permission","type":"tuple","internalType":"struct Permission","components":[{"name":"publicKey","type":"bytes32","internalType":"bytes32"},{"name":"signature","type":"bytes","internalType":"bytes"}]},{"name":"id","type":"string","internalType":"string"},{"name":"key","type":"string","internalType":"string"}],"outputs":[{"name":"","type":"string","internalType":"string"}],"stateMutability":"view"},{"type":"function","name":"getTextRecord","inputs":[{"name":"id","type":"string","internalType":"string"},{"name":"key","type":"string","internalType":"string"}],"outputs":[{"name":"","type":"string","internalType":"string"}],"stateMutability":"view"},{"type":"function","name":"owner","inputs":[],"outputs":[{"name":"","type":"address","internalType":"address"}],"stateMutability":"view"},{"type":"function","name":"renounceOwnership","inputs":[],"outputs":[],"stateMutability":"nonpayable"},{"type":"function","name":"setAddrRecord","inputs":[{"name":"id","type":"string","internalType":"string"},{"name":"coinType","type":"uint256","internalType":"uint256"},{"name":"addr","type":"bytes","internalType":"bytes"}],"outputs":[],"stateMutability":"nonpayable"},{"type":"function","name":"setEncTextRecord","inputs":[{"name":"id","type":"string","internalType":"string"},{"name":"key","type":"string","internalType":"string"},{"name":"encValue","type":"tuple","internalType":"struct inEuint256","components":[{"name":"data","type":"bytes","internalType":"bytes"},{"name":"securityZone","type":"int32","internalType":"int32"}]}],"outputs":[],"stateMutability":"nonpayable"},{"type":"function","name":"setTextRecord","inputs":[{"name":"id","type":"string","internalType":"string"},{"name":"key","type":"string","internalType":"string"},{"name":"value","type":"string","internalType":"string"}],"outputs":[],"stateMutability":"nonpayable"},{"type":"function","name":"textRecords","inputs":[{"name":"id","type":"string","internalType":"string"},{"name":"key","type":"string","internalType":"string"}],"outputs":[{"name":"value","type":"string","internalType":"string"}],"stateMutability":"view"},{"type":"function","name":"transferOwnership","inputs":[{"name":"newOwner","type":"address","internalType":"address"}],"outputs":[],"stateMutability":"nonpayable"},{"type":"event","name":"EIP712DomainChanged","inputs":[],"anonymous":false},{"type":"event","name":"OwnershipTransferred","inputs":[{"name":"previousOwner","type":"address","indexed":true,"internalType":"address"},{"name":"newOwner","type":"address","indexed":true,"internalType":"address"}],"anonymous":false},{"type":"error","name":"ECDSAInvalidSignature","inputs":[]},{"type":"error","name":"ECDSAInvalidSignatureLength","inputs":[{"name":"length","type":"uint256","internalType":"uint256"}]},{"type":"error","name":"ECDSAInvalidSignatureS","inputs":[{"name":"s","type":"bytes32","internalType":"bytes32"}]},{"type":"error","name":"InvalidShortString","inputs":[]},{"type":"error","name":"OwnableInvalidOwner","inputs":[{"name":"owner","type":"address","internalType":"address"}]},{"type":"error","name":"OwnableUnauthorizedAccount","inputs":[{"name":"account","type":"address","internalType":"address"}]},{"type":"error","name":"SignerNotMessageSender","inputs":[]},{"type":"error","name":"SignerNotOwner","inputs":[]},{"type":"error","name":"StringTooLong","inputs":[{"name":"str","type":"string","internalType":"string"}]}],"bytecode":{"object":"0x610160604052348015610010575f80fd5b506040805180820182526011815270233432b734bc102832b936b4b9b9b4b7b760791b602080830191909152825180840190935260038352620312e360ec1b9083015290338061007a57604051631e4fbdf760e01b81525f60048201526024015b60405180910390fd5b61008381610191565b5061008f8260016101e0565b6101205261009e8160026101e0565b61014052815160208084019190912060e052815190820120610100524660a05261012a60e05161010051604080517f8b73c3c69bb8fe3d512ecc4cf759cc79239f7b179b0ffacaa9a75d522b39400f60208201529081019290925260608201524660808201523060a08201525f9060c00160405160208183030381529060405280519060200120905090565b60805250503060c052604080516112346020820152016040516020818303038152906040526003604051610167906261626360e81b815260030190565b90815260408051602092819003830190205f808052925290209061018b90826102e7565b50610415565b5f80546001600160a01b038381166001600160a01b0319831681178455604051919092169283917f8be0079c531659141344cd1fd0a4f28419497f9722a3daafe3b4186f6b6457e09190a35050565b5f6020835110156101fb576101f483610212565b905061020c565b8161020684826102e7565b5060ff90505b92915050565b5f80829050601f8151111561023c578260405163305a27a960e01b815260040161007191906103a6565b8051610247826103f2565b179392505050565b634e487b7160e01b5f52604160045260245ffd5b600181811c9082168061027757607f821691505b60208210810361029557634e487b7160e01b5f52602260045260245ffd5b50919050565b601f8211156102e257805f5260205f20601f840160051c810160208510156102c05750805b601f840160051c820191505b818110156102df575f81556001016102cc565b50505b505050565b81516001600160401b038111156103005761030061024f565b6103148161030e8454610263565b8461029b565b602080601f831160018114610347575f84156103305750858301515b5f19600386901b1c1916600185901b17855561039e565b5f85815260208120601f198616915b8281101561037557888601518255948401946001909101908401610356565b508582101561039257878501515f19600388901b60f8161c191681555b505060018460011b0185555b505050505050565b5f602080835283518060208501525f5b818110156103d2578581018301518582016040015282016103b6565b505f604082860101526040601f19601f8301168501019250505092915050565b80516020808301519190811015610295575f1960209190910360031b1b16919050565b60805160a05160c05160e0516101005161012051610140516118b36104665f395f61087601525f61084401525f610ada01525f610ab201525f610a0d01525f610a3701525f610a6101526118b35ff3fe608060405234801561000f575f80fd5b50600436106100cf575f3560e01c8063906c15ad1161007d578063c7d8298c11610058578063c7d8298c146101ea578063e246629d146101fd578063f2fde38b14610210575f80fd5b8063906c15ad1461016e578063a82d545d14610181578063b8af8fce14610194575f80fd5b8063715018a6116100ad578063715018a61461012257806384b0196e1461012c5780638da5cb5b14610147575f80fd5b80635323bd4c146100d35780635cb1dbe4146100fc5780636e1cbad91461010f575b5f80fd5b6100e66100e136600461106d565b610223565b6040516100f3919061111a565b60405180910390f35b6100e661010a366004611171565b6102e3565b6100e661011d3660046111d8565b6103b4565b61012a610476565b005b610134610489565b6040516100f39796959493929190611220565b5f5460405173ffffffffffffffffffffffffffffffffffffffff90911681526020016100f3565b6100e661017c3660046112f6565b6104e7565b61012a61018f366004611384565b610608565b6101dc6101a236600461106d565b8151602081840181018051600582529282019482019490942091909352815180830184018051928152908401929093019190912091525481565b6040519081526020016100f3565b61012a6101f83660046113da565b610651565b61012a61020b36600461146d565b6106af565b61012a61021e3660046114fa565b61070f565b81516020818401810180516004825292820194820194909420919093528151808301840180519281529084019290930191909120915280546102649061152d565b80601f01602080910402602001604051908101604052809291908181526020018280546102909061152d565b80156102db5780601f106102b2576101008083540402835291602001916102db565b820191905f5260205f20905b8154815290600101906020018083116102be57829003601f168201915b505050505081565b6060600485856040516102f7929190611578565b90815260200160405180910390208383604051610315929190611578565b9081526020016040518091039020805461032e9061152d565b80601f016020809104026020016040519081016040528092919081815260200182805461035a9061152d565b80156103a55780601f1061037c576101008083540402835291602001916103a5565b820191905f5260205f20905b81548152906001019060200180831161038857829003601f168201915b50505050509050949350505050565b6060600384846040516103c8929190611578565b90815260200160405180910390205f8381526020019081526020015f2080546103f09061152d565b80601f016020809104026020016040519081016040528092919081815260200182805461041c9061152d565b80156104675780601f1061043e57610100808354040283529160200191610467565b820191905f5260205f20905b81548152906001019060200180831161044a57829003601f168201915b505050505090505b9392505050565b61047e610777565b6104875f6107c9565b565b5f6060805f805f606061049a61083d565b6104a261086f565b604080515f808252602082019092527f0f000000000000000000000000000000000000000000000000000000000000009b939a50919850469750309650945092509050565b60606104f286611587565b80516040515f9161054f91610534917f6bdaeb2d29561f159c7ef98b16b27015fb2aeb87209c7ee656226d912f59927d91602001918252602082015260400190565b6040516020818303038152906040528051906020012061089c565b90505f6105608284602001516108e9565b905073ffffffffffffffffffffffffffffffffffffffff811633146105b1576040517f3093a27700000000000000000000000000000000000000000000000000000000815260040160405180910390fd5b6105fb600589896040516105c6929190611578565b908152602001604051809103902087876040516105e4929190611578565b908152604051908190036020019020548a35610911565b9998505050505050505050565b610610610777565b818160038787604051610624929190611578565b90815260408051602092819003830190205f8881529252902091610649919083611620565b505050505050565b610659610777565b81816004888860405161066d929190611578565b9081526020016040518091039020868660405161068b929190611578565b908152602001604051809103902091826106a6929190611620565b50505050505050565b6106b7610777565b6106c86106c382611718565b610939565b600586866040516106da929190611578565b908152602001604051809103902084846040516106f8929190611578565b908152604051908190036020019020555050505050565b610717610777565b73ffffffffffffffffffffffffffffffffffffffff811661076b576040517f1e4fbdf70000000000000000000000000000000000000000000000000000000081525f60048201526024015b60405180910390fd5b610774816107c9565b50565b5f5473ffffffffffffffffffffffffffffffffffffffff163314610487576040517f118cdaa7000000000000000000000000000000000000000000000000000000008152336004820152602401610762565b5f805473ffffffffffffffffffffffffffffffffffffffff8381167fffffffffffffffffffffffff0000000000000000000000000000000000000000831681178455604051919092169283917f8be0079c531659141344cd1fd0a4f28419497f9722a3daafe3b4186f6b6457e09190a35050565b606061086a7f0000000000000000000000000000000000000000000000000000000000000000600161094b565b905090565b606061086a7f0000000000000000000000000000000000000000000000000000000000000000600261094b565b5f6108e36108a86109f4565b836040517f19010000000000000000000000000000000000000000000000000000000000008152600281019290925260228201526042902090565b92915050565b5f805f806108f78686610b2a565b9250925092506109078282610b73565b5090949350505050565b606082610924576109215f610c7a565b92505b8261093160058285610c87565b949350505050565b5f6108e3825f01518360200151610d14565b606060ff83146109655761095e83610d21565b90506108e3565b8180546109719061152d565b80601f016020809104026020016040519081016040528092919081815260200182805461099d9061152d565b80156109e85780601f106109bf576101008083540402835291602001916109e8565b820191905f5260205f20905b8154815290600101906020018083116109cb57829003601f168201915b505050505090506108e3565b5f3073ffffffffffffffffffffffffffffffffffffffff7f000000000000000000000000000000000000000000000000000000000000000016148015610a5957507f000000000000000000000000000000000000000000000000000000000000000046145b15610a8357507f000000000000000000000000000000000000000000000000000000000000000090565b61086a604080517f8b73c3c69bb8fe3d512ecc4cf759cc79239f7b179b0ffacaa9a75d522b39400f60208201527f0000000000000000000000000000000000000000000000000000000000000000918101919091527f000000000000000000000000000000000000000000000000000000000000000060608201524660808201523060a08201525f9060c00160405160208183030381529060405280519060200120905090565b5f805f8351604103610b61576020840151604085015160608601515f1a610b5388828585610d5e565b955095509550505050610b6c565b505081515f91506002905b9250925092565b5f826003811115610b8657610b86611773565b03610b8f575050565b6001826003811115610ba357610ba3611773565b03610bda576040517ff645eedf00000000000000000000000000000000000000000000000000000000815260040160405180910390fd5b6002826003811115610bee57610bee611773565b03610c28576040517ffce698f700000000000000000000000000000000000000000000000000000000815260048101829052602401610762565b6003826003811115610c3c57610c3c611773565b03610c76576040517fd78bce0c00000000000000000000000000000000000000000000000000000000815260048101829052602401610762565b5050565b5f6108e38260055f610e33565b6060608063a1848ff385610c9a86610ebd565b6040805160208101889052016040516020818303038152906040526040518463ffffffff1660e01b8152600401610cd3939291906117a0565b5f60405180830381865afa158015610ced573d5f803e3d5ffd5b505050506040513d5f823e601f3d908101601f191682016040526109319190810190611805565b5f61046f83600584610ee7565b60605f610d2d83610f2d565b6040805160208082528183019092529192505f91906020820181803683375050509182525060208101929092525090565b5f80807f7fffffffffffffffffffffffffffffff5d576e7357a4501ddfe92f46681b20a0841115610d9757505f91506003905082610e29565b604080515f808252602082018084528a905260ff891692820192909252606081018790526080810186905260019060a0016020604051602081039080840390855afa158015610de8573d5f803e3d5ffd5b5050604051601f19015191505073ffffffffffffffffffffffffffffffffffffffff8116610e2057505f925060019150829050610e29565b92505f91508190505b9450945094915050565b5f6060608063ba19ac28610e4687610ebd565b86866040518463ffffffff1660e01b8152600401610e669392919061184a565b5f60405180830381865afa158015610e80573d5f803e3d5ffd5b505050506040513d5f823e601f3d908101601f19168201604052610ea79190810190611805565b9050610eb4816020015190565b95945050505050565b60408051602080825281830190925260609160208201818036833750505060208101929092525090565b6040517f21b50ba30000000000000000000000000000000000000000000000000000000081525f906060906080906321b50ba390610e6690879089908890600401611878565b5f60ff8216601f8111156108e3576040517fb3512b0c00000000000000000000000000000000000000000000000000000000815260040160405180910390fd5b7f4e487b71000000000000000000000000000000000000000000000000000000005f52604160045260245ffd5b6040805190810167ffffffffffffffff81118282101715610fbd57610fbd610f6d565b60405290565b604051601f8201601f1916810167ffffffffffffffff81118282101715610fec57610fec610f6d565b604052919050565b5f67ffffffffffffffff82111561100d5761100d610f6d565b50601f01601f191660200190565b5f82601f83011261102a575f80fd5b813561103d61103882610ff4565b610fc3565b818152846020838601011115611051575f80fd5b816020850160208301375f918101602001919091529392505050565b5f806040838503121561107e575f80fd5b823567ffffffffffffffff80821115611095575f80fd5b6110a18683870161101b565b935060208501359150808211156110b6575f80fd5b506110c38582860161101b565b9150509250929050565b5f5b838110156110e75781810151838201526020016110cf565b50505f910152565b5f81518084526111068160208601602086016110cd565b601f01601f19169290920160200192915050565b602081525f61046f60208301846110ef565b5f8083601f84011261113c575f80fd5b50813567ffffffffffffffff811115611153575f80fd5b60208301915083602082850101111561116a575f80fd5b9250929050565b5f805f8060408587031215611184575f80fd5b843567ffffffffffffffff8082111561119b575f80fd5b6111a78883890161112c565b909650945060208701359150808211156111bf575f80fd5b506111cc8782880161112c565b95989497509550505050565b5f805f604084860312156111ea575f80fd5b833567ffffffffffffffff811115611200575f80fd5b61120c8682870161112c565b909790965060209590950135949350505050565b7fff00000000000000000000000000000000000000000000000000000000000000881681525f602060e0602084015261125c60e084018a6110ef565b838103604085015261126e818a6110ef565b6060850189905273ffffffffffffffffffffffffffffffffffffffff8816608086015260a0850187905284810360c0860152855180825260208088019350909101905f5b818110156112ce578351835292840192918401916001016112b2565b50909c9b505050505050505050505050565b5f604082840312156112f0575f80fd5b50919050565b5f805f805f6060868803121561130a575f80fd5b853567ffffffffffffffff80821115611321575f80fd5b61132d89838a016112e0565b96506020880135915080821115611342575f80fd5b61134e89838a0161112c565b90965094506040880135915080821115611366575f80fd5b506113738882890161112c565b969995985093965092949392505050565b5f805f805f60608688031215611398575f80fd5b853567ffffffffffffffff808211156113af575f80fd5b6113bb89838a0161112c565b9097509550602088013594506040880135915080821115611366575f80fd5b5f805f805f80606087890312156113ef575f80fd5b863567ffffffffffffffff80821115611406575f80fd5b6114128a838b0161112c565b9098509650602089013591508082111561142a575f80fd5b6114368a838b0161112c565b9096509450604089013591508082111561144e575f80fd5b5061145b89828a0161112c565b979a9699509497509295939492505050565b5f805f805f60608688031215611481575f80fd5b853567ffffffffffffffff80821115611498575f80fd5b6114a489838a0161112c565b909750955060208801359150808211156114bc575f80fd5b6114c889838a0161112c565b909550935060408801359150808211156114e0575f80fd5b506114ed888289016112e0565b9150509295509295909350565b5f6020828403121561150a575f80fd5b813573ffffffffffffffffffffffffffffffffffffffff8116811461046f575f80fd5b600181811c9082168061154157607f821691505b6020821081036112f0577f4e487b71000000000000000000000000000000000000000000000000000000005f52602260045260245ffd5b818382375f9101908152919050565b5f60408236031215611597575f80fd5b61159f610f9a565b82358152602083013567ffffffffffffffff8111156115bc575f80fd5b6115c83682860161101b565b60208301525092915050565b601f82111561161b57805f5260205f20601f840160051c810160208510156115f95750805b601f840160051c820191505b81811015611618575f8155600101611605565b50505b505050565b67ffffffffffffffff83111561163857611638610f6d565b61164c83611646835461152d565b836115d4565b5f601f84116001811461169c575f85156116665750838201355b7fffffffffffffffffffffffffffffffffffffffffffffffffffffffffffffffff600387901b1c1916600186901b178355611618565b5f83815260208120601f198716915b828110156116cb57868501358255602094850194600190920191016116ab565b5086821015611706577fffffffffffffffffffffffffffffffffffffffffffffffffffffffffffffffff60f88860031b161c19848701351681555b505060018560011b0183555050505050565b5f60408236031215611728575f80fd5b611730610f9a565b823567ffffffffffffffff811115611746575f80fd5b6117523682860161101b565b82525060208301358060030b8114611768575f80fd5b602082015292915050565b7f4e487b71000000000000000000000000000000000000000000000000000000005f52602160045260245ffd5b60ff84168152606060208201525f6117bb60608301856110ef565b82810360408401526117cd81856110ef565b9695505050505050565b5f6117e461103884610ff4565b90508281528383830111156117f7575f80fd5b61046f8360208301846110cd565b5f60208284031215611815575f80fd5b815167ffffffffffffffff81111561182b575f80fd5b8201601f8101841361183b575f80fd5b610931848251602084016117d7565b606081525f61185c60608301866110ef565b905060ff841660208301528260030b6040830152949350505050565b60ff84168152606060208201525f61189360608301856110ef565b90508260030b604083015294935050505056fea164736f6c6343000819000a","linkReferences":{}},"methodIdentifiers":{"eip712Domain()":"84b0196e","encTextRecords(string,string)":"b8af8fce","getAddrRecord(string,uint256)":"6e1cbad9","getEncTextRecord((bytes32,bytes),string,string)":"906c15ad","getTextRecord(string,string)":"5cb1dbe4","owner()":"8da5cb5b","renounceOwnership()":"715018a6","setAddrRecord(string,uint256,bytes)":"a82d545d","setEncTextRecord(string,string,(bytes,int32))":"e246629d","setTextRecord(string,string,string)":"c7d8298c","textRecords(string,string)":"5323bd4c","transferOwnership(address)":"f2fde38b"},"id":49}